{
  "_format": "hh-sol-artifact-1",
  "contractName": "TwitterDapp",
  "sourceName": "contracts/TwitterDapp.sol",
  "abi": [
    {
      "inputs": [],
      "stateMutability": "nonpayable",
      "type": "constructor"
    },
    {
      "anonymous": false,
      "inputs": [
        {
          "indexed": false,
          "internalType": "address",
          "name": "tweeter",
          "type": "address"
        },
        {
          "indexed": false,
          "internalType": "uint256",
          "name": "id",
          "type": "uint256"
        },
        {
          "indexed": false,
          "internalType": "string",
          "name": "tweetText",
          "type": "string"
        },
        {
          "indexed": false,
          "internalType": "string",
          "name": "tweetImg",
          "type": "string"
        },
        {
          "indexed": false,
          "internalType": "bool",
          "name": "isDeleted",
          "type": "bool"
        },
        {
          "indexed": false,
          "internalType": "uint256",
          "name": "timestamp",
          "type": "uint256"
        }
      ],
      "name": "tweetCreated",
      "type": "event"
    },
    {
      "anonymous": false,
      "inputs": [
        {
          "indexed": false,
          "internalType": "uint256",
          "name": "tweetId",
          "type": "uint256"
        },
        {
          "indexed": false,
          "internalType": "bool",
          "name": "isDeleted",
          "type": "bool"
        }
      ],
      "name": "tweetDeleted",
      "type": "event"
    },
    {
      "inputs": [
        {
          "internalType": "string",
          "name": "tweetText",
          "type": "string"
        },
        {
          "internalType": "string",
          "name": "tweetImg",
          "type": "string"
        }
      ],
      "name": "addTweet",
      "outputs": [],
      "stateMutability": "payable",
      "type": "function"
    },
    {
      "inputs": [
        {
          "internalType": "uint256",
          "name": "tweetId",
          "type": "uint256"
        },
        {
          "internalType": "bool",
          "name": "isDeleted",
          "type": "bool"
        }
      ],
      "name": "deleteTweet",
      "outputs": [],
      "stateMutability": "nonpayable",
      "type": "function"
    },
    {
      "inputs": [],
      "name": "getAllTweets",
      "outputs": [
        {
          "components": [
            {
              "internalType": "address",
              "name": "tweeter",
              "type": "address"
            },
            {
              "internalType": "uint256",
              "name": "id",
              "type": "uint256"
            },
            {
              "internalType": "string",
              "name": "tweetText",
              "type": "string"
            },
            {
              "internalType": "string",
              "name": "tweetImg",
              "type": "string"
            },
            {
              "internalType": "bool",
              "name": "isDeleted",
              "type": "bool"
            },
            {
              "internalType": "uint256",
              "name": "timestamp",
              "type": "uint256"
            }
          ],
          "internalType": "struct TwitterDapp.tweet[]",
          "name": "",
          "type": "tuple[]"
        }
      ],
      "stateMutability": "view",
      "type": "function"
    },
    {
      "inputs": [],
      "name": "getMyTweets",
      "outputs": [
        {
          "components": [
            {
              "internalType": "address",
              "name": "tweeter",
              "type": "address"
            },
            {
              "internalType": "uint256",
              "name": "id",
              "type": "uint256"
            },
            {
              "internalType": "string",
              "name": "tweetText",
              "type": "string"
            },
            {
              "internalType": "string",
              "name": "tweetImg",
              "type": "string"
            },
            {
              "internalType": "bool",
              "name": "isDeleted",
              "type": "bool"
            },
            {
              "internalType": "uint256",
              "name": "timestamp",
              "type": "uint256"
            }
          ],
          "internalType": "struct TwitterDapp.tweet[]",
          "name": "",
          "type": "tuple[]"
        }
      ],
      "stateMutability": "view",
      "type": "function"
    },
    {
      "inputs": [
        {
          "internalType": "uint256",
          "name": "id",
          "type": "uint256"
        }
      ],
      "name": "getTweet",
      "outputs": [
        {
          "internalType": "string",
          "name": "",
          "type": "string"
        },
        {
          "internalType": "string",
          "name": "",
          "type": "string"
        },
        {
          "internalType": "address",
          "name": "",
          "type": "address"
        }
      ],
      "stateMutability": "view",
      "type": "function"
    },
    {
      "inputs": [
        {
          "internalType": "address",
          "name": "userAddress",
          "type": "address"
        }
      ],
      "name": "getUser",
      "outputs": [
        {
          "components": [
            {
              "internalType": "string",
              "name": "name",
              "type": "string"
            },
            {
              "internalType": "string",
              "name": "bio",
              "type": "string"
            },
            {
              "internalType": "string",
              "name": "profileImg",
              "type": "string"
            },
            {
              "internalType": "string",
              "name": "profileBanner",
              "type": "string"
            }
          ],
          "internalType": "struct TwitterDapp.user",
          "name": "",
          "type": "tuple"
        }
      ],
      "stateMutability": "view",
      "type": "function"
    },
    {
      "inputs": [],
      "name": "owner",
      "outputs": [
        {
          "internalType": "address",
          "name": "",
          "type": "address"
        }
      ],
      "stateMutability": "view",
      "type": "function"
    },
    {
      "inputs": [
        {
          "internalType": "string",
          "name": "newName",
          "type": "string"
        },
        {
          "internalType": "string",
          "name": "newBio",
          "type": "string"
        },
        {
          "internalType": "string",
          "name": "newProfileImg",
          "type": "string"
        },
        {
          "internalType": "string",
          "name": "newProfileBanner",
          "type": "string"
        }
      ],
      "name": "updateUser",
      "outputs": [],
      "stateMutability": "nonpayable",
      "type": "function"
    }
  ],
  "bytecode": "0x608060405234801561001057600080fd5b50336000806101000a81548173ffffffffffffffffffffffffffffffffffffffff021916908373ffffffffffffffffffffffffffffffffffffffff1602179055506000600181905550611dda806100686000396000f3fe60806040526004361061007b5760003560e01c8063aefedbc21161004e578063aefedbc21461012f578063b5c24a011461015a578063c3ad5ecb14610183578063f0312a37146101c25761007b565b806353256135146100805780636f77926b146100ab5780637e75b408146100e85780638da5cb5b14610104575b600080fd5b34801561008c57600080fd5b506100956101eb565b6040516100a291906114e5565b60405180910390f35b3480156100b757600080fd5b506100d260048036038101906100cd9190611547565b610546565b6040516100df91906115ec565b60405180910390f35b61010260048036038101906100fd9190611743565b6107e7565b005b34801561011057600080fd5b506101196109b8565b60405161012691906117ca565b60405180910390f35b34801561013b57600080fd5b506101446109dc565b60405161015191906114e5565b60405180910390f35b34801561016657600080fd5b50610181600480360381019061017c91906117e5565b610da4565b005b34801561018f57600080fd5b506101aa60048036038101906101a591906118e8565b610e52565b6040516101b99392919061195f565b60405180910390f35b3480156101ce57600080fd5b506101e960048036038101906101e491906119d0565b61105d565b005b6060600060015467ffffffffffffffff81111561020b5761020a611618565b5b60405190808252806020026020018201604052801561024457816020015b61023161116c565b8152602001906001900390816102295790505b5090506000805b60015481101561048c57600015156002600083815260200190815260200160002060040160009054906101000a900460ff161515141561047957600260008281526020019081526020016000206040518060c00160405290816000820160009054906101000a900473ffffffffffffffffffffffffffffffffffffffff1673ffffffffffffffffffffffffffffffffffffffff1673ffffffffffffffffffffffffffffffffffffffff1681526020016001820154815260200160028201805461031390611a3f565b80601f016020809104026020016040519081016040528092919081815260200182805461033f90611a3f565b801561038c5780601f106103615761010080835404028352916020019161038c565b820191906000526020600020905b81548152906001019060200180831161036f57829003601f168201915b505050505081526020016003820180546103a590611a3f565b80601f01602080910402602001604051908101604052809291908181526020018280546103d190611a3f565b801561041e5780601f106103f35761010080835404028352916020019161041e565b820191906000526020600020905b81548152906001019060200180831161040157829003601f168201915b505050505081526020016004820160009054906101000a900460ff1615151515815260200160058201548152505083838151811061045f5761045e611a71565b5b6020026020010181905250818061047590611acf565b9250505b808061048490611acf565b91505061024b565b5060008167ffffffffffffffff8111156104a9576104a8611618565b5b6040519080825280602002602001820160405280156104e257816020015b6104cf61116c565b8152602001906001900390816104c75790505b50905060005b8281101561053c5783818151811061050357610502611a71565b5b602002602001015182828151811061051e5761051d611a71565b5b6020026020010181905250808061053490611acf565b9150506104e8565b5080935050505090565b61054e6111ba565b600360008373ffffffffffffffffffffffffffffffffffffffff1673ffffffffffffffffffffffffffffffffffffffff1681526020019081526020016000206040518060800160405290816000820180546105a890611a3f565b80601f01602080910402602001604051908101604052809291908181526020018280546105d490611a3f565b80156106215780601f106105f657610100808354040283529160200191610621565b820191906000526020600020905b81548152906001019060200180831161060457829003601f168201915b5050505050815260200160018201805461063a90611a3f565b80601f016020809104026020016040519081016040528092919081815260200182805461066690611a3f565b80156106b35780601f10610688576101008083540402835291602001916106b3565b820191906000526020600020905b81548152906001019060200180831161069657829003601f168201915b505050505081526020016002820180546106cc90611a3f565b80601f01602080910402602001604051908101604052809291908181526020018280546106f890611a3f565b80156107455780601f1061071a57610100808354040283529160200191610745565b820191906000526020600020905b81548152906001019060200180831161072857829003601f168201915b5050505050815260200160038201805461075e90611a3f565b80601f016020809104026020016040519081016040528092919081815260200182805461078a90611a3f565b80156107d75780601f106107ac576101008083540402835291602001916107d7565b820191906000526020600020905b8154815290600101906020018083116107ba57829003601f168201915b5050505050815250509050919050565b670de0b6b3a76400003414610831576040517f08c379a000000000000000000000000000000000000000000000000000000000815260040161082890611b64565b60405180910390fd5b60006002600060015481526020019081526020016000209050828160020190805190602001906108629291906111e2565b508181600301908051906020019061087b9291906111e2565b50338160000160006101000a81548173ffffffffffffffffffffffffffffffffffffffff021916908373ffffffffffffffffffffffffffffffffffffffff160217905550600154816001018190555060008160040160006101000a81548160ff0219169083151502179055504281600501819055507f38c5779ac46571418294ee2465c37dedbc6002dc9d04a4033cf23156da62fcd333600154858560004260405161092c96959493929190611ba2565b60405180910390a16001600081548092919061094790611acf565b919050555060008054906101000a900473ffffffffffffffffffffffffffffffffffffffff1673ffffffffffffffffffffffffffffffffffffffff166108fc349081150290604051600060405180830381858888f193505050501580156109b2573d6000803e3d6000fd5b50505050565b60008054906101000a900473ffffffffffffffffffffffffffffffffffffffff1681565b6060600060015467ffffffffffffffff8111156109fc576109fb611618565b5b604051908082528060200260200182016040528015610a3557816020015b610a2261116c565b815260200190600190039081610a1a5790505b5090506000805b600154811015610cea573373ffffffffffffffffffffffffffffffffffffffff166002600083815260200190815260200160002060000160009054906101000a900473ffffffffffffffffffffffffffffffffffffffff1673ffffffffffffffffffffffffffffffffffffffff16148015610ade5750600015156002600083815260200190815260200160002060040160009054906101000a900460ff161515145b15610cd757600260008281526020019081526020016000206040518060c00160405290816000820160009054906101000a900473ffffffffffffffffffffffffffffffffffffffff1673ffffffffffffffffffffffffffffffffffffffff1673ffffffffffffffffffffffffffffffffffffffff16815260200160018201548152602001600282018054610b7190611a3f565b80601f0160208091040260200160405190810160405280929190818152602001828054610b9d90611a3f565b8015610bea5780601f10610bbf57610100808354040283529160200191610bea565b820191906000526020600020905b815481529060010190602001808311610bcd57829003601f168201915b50505050508152602001600382018054610c0390611a3f565b80601f0160208091040260200160405190810160405280929190818152602001828054610c2f90611a3f565b8015610c7c5780601f10610c5157610100808354040283529160200191610c7c565b820191906000526020600020905b815481529060010190602001808311610c5f57829003601f168201915b505050505081526020016004820160009054906101000a900460ff16151515158152602001600582015481525050838381518110610cbd57610cbc611a71565b5b60200260200101819052508180610cd390611acf565b9250505b8080610ce290611acf565b915050610a3c565b5060008167ffffffffffffffff811115610d0757610d06611618565b5b604051908082528060200260200182016040528015610d4057816020015b610d2d61116c565b815260200190600190039081610d255790505b50905060005b82811015610d9a57838181518110610d6157610d60611a71565b5b6020026020010151828281518110610d7c57610d7b611a71565b5b60200260200101819052508080610d9290611acf565b915050610d46565b5080935050505090565b6000600360003373ffffffffffffffffffffffffffffffffffffffff1673ffffffffffffffffffffffffffffffffffffffff168152602001908152602001600020905084816000019080519060200190610dff9291906111e2565b5083816001019080519060200190610e189291906111e2565b5082816002019080519060200190610e319291906111e2565b5081816003019080519060200190610e4a9291906111e2565b505050505050565b60608060006001548410610e9b576040517f08c379a0000000000000000000000000000000000000000000000000000000008152600401610e9290611c5d565b60405180910390fd5b6000600260008681526020019081526020016000209050600015158160040160009054906101000a900460ff16151514610f0a576040517f08c379a0000000000000000000000000000000000000000000000000000000008152600401610f0190611cc9565b60405180910390fd5b80600201816003018260000160009054906101000a900473ffffffffffffffffffffffffffffffffffffffff16828054610f4390611a3f565b80601f0160208091040260200160405190810160405280929190818152602001828054610f6f90611a3f565b8015610fbc5780601f10610f9157610100808354040283529160200191610fbc565b820191906000526020600020905b815481529060010190602001808311610f9f57829003601f168201915b50505050509250818054610fcf90611a3f565b80601f0160208091040260200160405190810160405280929190818152602001828054610ffb90611a3f565b80156110485780601f1061101d57610100808354040283529160200191611048565b820191906000526020600020905b81548152906001019060200180831161102b57829003601f168201915b50505050509150935093509350509193909250565b3373ffffffffffffffffffffffffffffffffffffffff166002600084815260200190815260200160002060000160009054906101000a900473ffffffffffffffffffffffffffffffffffffffff1673ffffffffffffffffffffffffffffffffffffffff1614611101576040517f08c379a00000000000000000000000000000000000000000000000000000000081526004016110f890611d5b565b60405180910390fd5b806002600084815260200190815260200160002060040160006101000a81548160ff0219169083151502179055507f7d6920872f4fb292f7fc9afd13a3e5e33dcdb18dfaa6c5f1dcd87b2a4d532a188282604051611160929190611d7b565b60405180910390a15050565b6040518060c00160405280600073ffffffffffffffffffffffffffffffffffffffff168152602001600081526020016060815260200160608152602001600015158152602001600081525090565b6040518060800160405280606081526020016060815260200160608152602001606081525090565b8280546111ee90611a3f565b90600052602060002090601f0160209004810192826112105760008555611257565b82601f1061122957805160ff1916838001178555611257565b82800160010185558215611257579182015b8281111561125657825182559160200191906001019061123b565b5b5090506112649190611268565b5090565b5b80821115611281576000816000905550600101611269565b5090565b600081519050919050565b600082825260208201905092915050565b6000819050602082019050919050565b600073ffffffffffffffffffffffffffffffffffffffff82169050919050565b60006112dc826112b1565b9050919050565b6112ec816112d1565b82525050565b6000819050919050565b611305816112f2565b82525050565b600081519050919050565b600082825260208201905092915050565b60005b8381101561134557808201518184015260208101905061132a565b83811115611354576000848401525b50505050565b6000601f19601f8301169050919050565b60006113768261130b565b6113808185611316565b9350611390818560208601611327565b6113998161135a565b840191505092915050565b60008115159050919050565b6113b9816113a4565b82525050565b600060c0830160008301516113d760008601826112e3565b5060208301516113ea60208601826112fc565b5060408301518482036040860152611402828261136b565b9150506060830151848203606086015261141c828261136b565b915050608083015161143160808601826113b0565b5060a083015161144460a08601826112fc565b508091505092915050565b600061145b83836113bf565b905092915050565b6000602082019050919050565b600061147b82611285565b6114858185611290565b935083602082028501611497856112a1565b8060005b858110156114d357848403895281516114b4858261144f565b94506114bf83611463565b925060208a0199505060018101905061149b565b50829750879550505050505092915050565b600060208201905081810360008301526114ff8184611470565b905092915050565b6000604051905090565b600080fd5b600080fd5b611524816112d1565b811461152f57600080fd5b50565b6000813590506115418161151b565b92915050565b60006020828403121561155d5761155c611511565b5b600061156b84828501611532565b91505092915050565b60006080830160008301518482036000860152611591828261136b565b915050602083015184820360208601526115ab828261136b565b915050604083015184820360408601526115c5828261136b565b915050606083015184820360608601526115df828261136b565b9150508091505092915050565b600060208201905081810360008301526116068184611574565b905092915050565b600080fd5b600080fd5b7f4e487b7100000000000000000000000000000000000000000000000000000000600052604160045260246000fd5b6116508261135a565b810181811067ffffffffffffffff8211171561166f5761166e611618565b5b80604052505050565b6000611682611507565b905061168e8282611647565b919050565b600067ffffffffffffffff8211156116ae576116ad611618565b5b6116b78261135a565b9050602081019050919050565b82818337600083830152505050565b60006116e66116e184611693565b611678565b90508281526020810184848401111561170257611701611613565b5b61170d8482856116c4565b509392505050565b600082601f83011261172a5761172961160e565b5b813561173a8482602086016116d3565b91505092915050565b6000806040838503121561175a57611759611511565b5b600083013567ffffffffffffffff81111561177857611777611516565b5b61178485828601611715565b925050602083013567ffffffffffffffff8111156117a5576117a4611516565b5b6117b185828601611715565b9150509250929050565b6117c4816112d1565b82525050565b60006020820190506117df60008301846117bb565b92915050565b600080600080608085870312156117ff576117fe611511565b5b600085013567ffffffffffffffff81111561181d5761181c611516565b5b61182987828801611715565b945050602085013567ffffffffffffffff81111561184a57611849611516565b5b61185687828801611715565b935050604085013567ffffffffffffffff81111561187757611876611516565b5b61188387828801611715565b925050606085013567ffffffffffffffff8111156118a4576118a3611516565b5b6118b087828801611715565b91505092959194509250565b6118c5816112f2565b81146118d057600080fd5b50565b6000813590506118e2816118bc565b92915050565b6000602082840312156118fe576118fd611511565b5b600061190c848285016118d3565b91505092915050565b600082825260208201905092915050565b60006119318261130b565b61193b8185611915565b935061194b818560208601611327565b6119548161135a565b840191505092915050565b600060608201905081810360008301526119798186611926565b9050818103602083015261198d8185611926565b905061199c60408301846117bb565b949350505050565b6119ad816113a4565b81146119b857600080fd5b50565b6000813590506119ca816119a4565b92915050565b600080604083850312156119e7576119e6611511565b5b60006119f5858286016118d3565b9250506020611a06858286016119bb565b9150509250929050565b7f4e487b7100000000000000000000000000000000000000000000000000000000600052602260045260246000fd5b60006002820490506001821680611a5757607f821691505b60208210811415611a6b57611a6a611a10565b5b50919050565b7f4e487b7100000000000000000000000000000000000000000000000000000000600052603260045260246000fd5b7f4e487b7100000000000000000000000000000000000000000000000000000000600052601160045260246000fd5b6000611ada826112f2565b91507fffffffffffffffffffffffffffffffffffffffffffffffffffffffffffffffff821415611b0d57611b0c611aa0565b5b600182019050919050565b7f506c65617365207375626d69742031204d415449430000000000000000000000600082015250565b6000611b4e601583611915565b9150611b5982611b18565b602082019050919050565b60006020820190508181036000830152611b7d81611b41565b9050919050565b611b8d816112f2565b82525050565b611b9c816113a4565b82525050565b600060c082019050611bb760008301896117bb565b611bc46020830188611b84565b8181036040830152611bd68187611926565b90508181036060830152611bea8186611926565b9050611bf96080830185611b93565b611c0660a0830184611b84565b979650505050505050565b7f4e6f207375636820547765657400000000000000000000000000000000000000600082015250565b6000611c47600d83611915565b9150611c5282611c11565b602082019050919050565b60006020820190508181036000830152611c7681611c3a565b9050919050565b7f547765657420686173206265656e2064656c6574656400000000000000000000600082015250565b6000611cb3601683611915565b9150611cbe82611c7d565b602082019050919050565b60006020820190508181036000830152611ce281611ca6565b9050919050565b7f596f752063616e206f6e6c792064656c65746520796f7572206f776e2074776560008201527f6574730000000000000000000000000000000000000000000000000000000000602082015250565b6000611d45602383611915565b9150611d5082611ce9565b604082019050919050565b60006020820190508181036000830152611d7481611d38565b9050919050565b6000604082019050611d906000830185611b84565b611d9d6020830184611b93565b939250505056fea2646970667358221220458f6234f071b202d4a13b8a43a66c36e70d729b04af6ff85e812e4e26f5db5e64736f6c63430008090033",
  "linkReferences": {},
  "deployedLinkReferences": {}
}